:020000040000FA
:08000000803102288731FD2F39
:100F4C0050018C0108008731C8278731AC2F510123
:100F5C0091019301920108009030460196007F3078
:100F6C009500C030940008000130450190008F01BD
:100F7C009101FF308D008C014E010D13F0304501B5
:100F8C008E0008008731D72787318731AD2787310D
:100F9C008731A62787318731B22787318731BA2726
:100FAC000800980199019A013B309200F0309300AF
:100FBC00FF309400FF307E01CE00F030C3003330A0
:100FCC00B800C401B901CF010430BA00C501D00189
:100FDC003730BB00F030C600FF30D1003F30BC00D2
:100FEC00F030C700FF30D2000330920008004001FF
:040FFC008731A92F61
:020000040001F9
:04000E00ED3FE73F9C
:04001400FF3FFF3F6C
:00000001FF
