:020000040000FA
:08000000803102288731FD2F39
:100F440050018C01080051019101930192010800A4
:100F54008731C6278731AD2F803102289030460172
:100F640096007F309500C0309400080001304501A0
:100F740090008F019101FF308D008C014E010D1303
:100F8400F03045018E0008008731D627873187313C
:100F9400A52787318731A22787318731B027873149
:100FA4008731B827873108004001980199019A01D7
:100FB4003B309200F0309300FF309400FF307E010C
:100FC400CE00F030C3003330B800C401B901CF0102
:100FD4000430BA00C501D0013730BB00F030C60080
:100FE400FF30D1003F30BC00F030C700FF30D200EA
:0C0FF40003309200080040018731AA2F52
:020000040001F9
:04000E00ED3FE73F9C
:04001400FF3FFF3F6C
:00000001FF
